:020000040000FA
:1000000002064C020052900021E004F50B7C007DBA
:1000100020FF1205B1400122308DFD12091BC2994B
:10002000E4F5993099FDC299E4FFEFC3950B5015A3
:1000300074202FF582E43400F583E0F5993099FDC2
:10004000C2990F80E5E4F5993099FDC299D322C297
:10005000ED323202004F7C007D20AF131207684062
:1000600003020225900022E0F509900024E0FF3011
:10007000000765127003020225D2008F12E5146595
:100080000960030201EDE51470030201ED90002305
:10009000E0900022F0A3E514F09000257480F09029
:1000A00000217409F0900026E024FE606224F160D3
:1000B0007214700302017A1470030201C9241360E0
:1000C000030201EBE4F50AC3E50A9404748094800A
:1000D000501E74FC250AF582E43400F583E0FF74B9
:1000E00027250AF582E43400F583EFF0050A80D76E
:1000F00090002BE5B5F0A3E5ADF0A3E5B6F09000D8
:1001000025E04440F0900021E02407F00202221292
:100110000321900025E04440F0900021E02410F0FD
:10012000020222E4F50AC3E50A9410748094805018
:10013000387400250AF582E43400F583E0FF742763
:10014000250AF582E43400F583EFF07410250AF5F2
:1001500082E43400F583E0FF7437250AF582E43445
:1001600000F583EFF0050A80BD900025E04440F0E3
:10017000900021E02420F0020222E4F50AC3E50AFF
:1001800094107480948050387427250AF582E434E2
:1001900000F583E0FF7400250AF582E43400F5835E
:1001A000EFF07437250AF582E43400F583E0FF743C
:1001B00010250AF582E43400F583EFF0050A80BDCE
:1001C000900025E04440F08059900027E0F515A309
:1001D000E0F516E4900027F0A3F01206DB5007903C
:1001E0000025E04440F0E4F515F5168035E509F406
:1001F0007033900026E06410702B900021E06409B9
:100200007023900023E0900022F090002574C0F04D
:100210009000217409F0900027E0F514900023E588
:1002200014F01200062275F008758200EF2FFFEE21
:1002300033FECD33CDCC33CCC58233C5829BED9A12
:10024000EC99E58298400CF582EE9BFEED9AFDEC70
:1002500099FC0FD5F0D6E4CEFBE4CDFAE4CCF9A8B6
:100260008222B800C1B90059BA002DEC8BF084CFBE
:10027000CECDFCE5F0CBF97818EF2FFFEE33FEED95
:1002800033FDEC33FCEB33FB10D703994004EB99BF
:10029000FB0FD8E5E4F9FA227818EF2FFFEE33FED2
:1002A000ED33FDEC33FCC933C910D7059BE99A4007
:1002B00007EC9BFCE99AF90FD8E0E4C9FAE4CCFB1F
:1002C0002275F010EF2FFFEE33FEED33FDCC33CC73
:1002D000C833C810D7079BEC9AE899400AED9BFDFC
:1002E000EC9AFCE899F80FD5F0DAE4CDFBE4CCFA0F
:1002F000E4C8F922EC8EF0A4CCC5F0CCCDF8EFA484
:10030000CEC5F02DFDE43CFCE8A42EC8C5F03DFDB3
:10031000E43CFCEFA4FFE5F028FEE43DFDE43CFCFA
:100320002275BB07E4F50DC3E50D94067480948037
:100330005067E50D90092D93F5901207E7E50D251F
:10034000E02410F582E43400F583E0FCA3E0FD1224
:1003500002F4E4FBFA7901F8120262E50D25E024CB
:1003600000F582E43400F583E0FCA3E02FF50CEC0B
:100370003EF50BE50D25E02427F582E43400F583F6
:10038000E50CF0E50BFFE50D25E02428F582E434CB
:1003900000F583EFF0050D808EE4F59053BCFE75FB
:1003A000BB121207E790001CE0FCA3E0FD1202F470
:1003B000E4FBFA7901F812026290000DE02FF50CCF
:1003C00090000CE03EF50BE50C900033F0E50BFFE0
:1003D000A3EFF043D10475BB1043BC011207E790B3
:1003E000001EE0FCA3E0FD1202F4E4FBFA7901F840
:1003F00012026290000FE02FF50C90000EE03EF527
:100400000B75BB1353D1FBE50C900035F0E50BFFEA
:10041000A3EFF02243FF8075EF0275A94043B1823C
:100420007580F075A45075F17F75D480E4F59075F2
:10043000A50775E10175E34075B20175BB1375BC85
:100440000975B38575DF4475B92875E84275D1988B
:10045000758E11758921758DB0758BB0D28EF5C8EA
:10046000F5CBF5CA12091B75E405D28812088F4333
:10047000E608D2AFD28CD29CC28620982C308DFA5E
:1004800012091BE4F513C29CC29875A902C289D255
:10049000A8C28643870185878775A940D286C2A8EE
:1004A0003085FDD29CD28C80D112091BD28C8599CB
:1004B00008C298E5087021C3E513940974809480FC
:1004C000401112091BD28C120056E4F513D28DC2D2
:1004D0009880A7E4F51380A2C3E51394497480942F
:1004E000805097AF13051374202FF582E43400F584
:1004F00083E508F0808443CE0443CE088514DDE410
:10050000FFEFC3941074809480501074002FF58214
:10051000E43400F583E0F5DD0F80E6E4FFEFC394FB
:100520001074809480501074102FF582E43400F51C
:1005300083E0F5DD0F80E643CE01901C02E4936575
:10054000DE6002C32253CEFE901C03E49365DE609E
:1005500002C322901C01E49364FE6002C322901C3B
:1005600000E49364016002C322901C04E4936514C8
:100570006002C322E4FFEFC3941074809480502F74
:10058000EF901C0593FE74002FF582E43400F58390
:10059000E06E6002C322EF901C1593FE74102FF5DD
:1005A00082E43400F583E06E6002C3220F80C7D37B
:1005B00022E4F50C7E017901EFFBC3940974809469
:1005C00080400AD3EB9449748094804002C3224354
:1005D000CE0443CE088D828C83E4F0EEC39F505F3F
:1005E000ED2EF582E43CF583E0F50DEF24FEFBEE05
:1005F000C39B5003850DDDEF24FD6E702953CEFEA5
:10060000EF24FEFBE434FFFAED2BF582EC3AF583A0
:10061000E5DEF0EF24FFFBE434FFFAED2BF582EC8E
:100620003AF583E5DEF0E50D7011ED250CF582E479
:100630003CF583E9F079018E0C8001090E809CED78
:10064000250CF582E43CF583E9F0D32212092678E3
:100650007FE4F6D8FD758120020696020414E49327
:10066000A3F8E493A34003F68001F208DFF48029A5
:10067000E493A3F85407240CC8C333C4540F442094
:10068000C8834004F456800146F6DFE4800B010283
:100690000408102040809008CFE47E019360BCA342
:1006A000FF543F30E509541FFEE493A360010ECFD1
:1006B00054C025E060A840B8E493A3FAE493A3F8FB
:1006C000E493A3C8C582C8CAC583CAF0A3C8C582BB
:1006D000C8CAC583CADFE9DEE780BEE515645A7083
:1006E00006E516640E6002C3221204F6500122438E
:1006F0008F02E4FDFF7E1C120904AD147F04120971
:1007000004E4FCECC39410748094805031EC240514
:10071000FFE4341CFE74002CF582E43400F583E021
:10072000FD120904EC2415FFE4341CFE74102CF5B2
:1007300082E43400F583E0FD1209040C80C543CE49
:1007400001ADDE7F027E1C12090453CEFEADDE0F2A
:100750001209047DFE7F011209047D011F120904A4
:100760001204F6400122D3228C0B8D0CE4F9FEEF2B
:10077000FDC3940974809480400AD3ED9449748039
:1007800094804002C322850C82850B83A3E0FDEF99
:10079000146D6002C32243CE0443CE0853CEFEEE56
:1007A000C39F5041E50C2EF582E4350BF583E0FD47
:1007B000EEB5011AC3EF99FCEDD39C400122ED295F
:1007C000F9E50C2EF582E4350BF583E4F0FDEF241A
:1007D000FEFCEEC39C4006ACDEEC6D8005EE6002D4
:1007E0008DDD0E80BAD322E4F511F510F50FF50E6C
:1007F00075CDF475CC0AFBEBC394107480948050D3
:100800002ED2CA438701858787C2CA75CDFF75CCB2
:1008100067AFBDAEBEE4FCFDE5112FF511E5103E5E
:10082000F510ED350FF50FEC350EF50E0B80C8E425
:100830007B10FAF9F8AF11AE10AD0FAC0E020262E8
:10084000901C00E49364016002C322901C01E493B5
:1008500064FE6002C32243CE0443CE087F04EFC38C
:10086000942574809480500AEF901C0093F5DD0F5E
:1008700080EC43CE01901C02E49365DE6002C3224B
:1008800053CEFE901C03E49365DED36001C32212B5
:100890000840503A901C04E493F514E4FFEFC3942D
:1008A00010748094805027EF901C0593FE74002FE5
:1008B000F582E43400F583EEF0EF901C1593FE749E
:1008C000102FF582E43400F583EEF00F80CF220183
:1008D0001300011401011500011600500000000A68
:1008E000000A000A000A000A000A0000F5A05000F1
:1008F000104F424F424F424F424F424F4212C02090
:10090000E5C100008F828E83E515F4F5B7E516F496
:10091000F5B7438F01EDF0538FFC22C28CC28D7569
:100920008C6A758A76227597DE7597AD220103026F
:03093000040605B5
:00000001FF
