:020000040000FA
:10000000020480020051308DFD12003CC299E4F5DB
:10001000993099FDC299E4FFEFC3951150157420F2
:100020002FF582E43400F583E0F5993099FDC2990B
:100030000F80E5E4F5993099FDC29922C28CC28DFA
:10004000758CF3758A8A227597DE7597AD22C2ED9D
:0200500032324A
:1000530002004E75BB07E4F50BC3E50B94067480F1
:100063009480506BE50B90061693F59012058E8ED7
:10007300098F0AE50B25E02410F582E43400F583AB
:10008300E0FCA3E0FD12021FE4FBFA7901F8120180
:100093008DE50B25E02400F582E43400F583E0FCD4
:1000A300A3E02FF50AEC3EF509E50B25E02427F53F
:1000B30082E43400F583E50AF0E509FFE50B25E06A
:1000C3002428F582E43400F583EFF0050B808AE4FD
:1000D300F59053BCFE75BB1212058E8E098F0A90E4
:1000E300001CE0FCA3E0FD12021FE4FBFA7901F817
:1000F30012018D90000DE02FF50A90000CE03EF503
:1001030009E50A900033F0E509A3F043D10475BB78
:100113001043BC0112058E8E098F0A90001EE0FC6D
:10012300A3E0FD12021FE4FBFA7901F812018D909E
:10013300000FE02FF50A90000EE03EF50975BB13A2
:1001430053D1FBE50A900035F0E509A3F02275F0E1
:1001530008758200EF2FFFEE33FECD33CDCC33CCC9
:10016300C58233C5829BED9AEC99E58298400CF5E4
:1001730082EE9BFEED9AFDEC99FC0FD5F0D6E4CE12
:10018300FBE4CDFAE4CCF9A88222B800C1B9005946
:10019300BA002DEC8BF084CFCECDFCE5F0CBF97813
:1001A30018EF2FFFEE33FEED33FDEC33FCEB33FBA7
:1001B30010D703994004EB99FB0FD8E5E4F9FA2231
:1001C3007818EF2FFFEE33FEED33FDEC33FCC9332C
:1001D300C910D7059BE99A4007EC9BFCE99AF90FF4
:1001E300D8E0E4C9FAE4CCFB2275F010EF2FFFEE60
:1001F30033FEED33FDCC33CCC833C810D7079BECAB
:100203009AE899400AED9BFDEC9AFCE899F80FD522
:10021300F0DAE4CDFBE4CCFAE4C8F922EC8EF0A4E6
:10022300CCC5F0CCCDF8EFA4CEC5F02DFDE43CFC5D
:10023300E8A42EC8C5F03DFDE43CFCEFA4FFE5F0C7
:1002430028FEE43DFDE43CFC2243FF8075EF02758C
:10025300A94043B1827580F075A45075F17F75D4C0
:1002630080E4F59075A50775E10175E34075B2016A
:1002730075BB1375BC0975B38575DF4475B92875EE
:10028300E84275D198758E1A758921758D60D28E65
:10029300F5C8F5CBF5CA12003C75E405D28843E6F0
:1002A30008D2AFD28CD29CC28620982C308DFA1201
:1002B300003CE4F511C29CC29875A902C289D2A878
:1002C300C28643870185878775A940D286C2A83035
:1002D30085FDD29CD28C80D112003CD28C859908AA
:1002E300C298E5087021C3E5119409748094804095
:1002F3001112003CD28C120328E4F511D28DC2985E
:1003030080A7E4F51180A2C3E51194497480948019
:100313005097AF11051174202FF582E43400F58353
:10032300E508F080847C007D20AF1112050F4003A7
:100333000203E4900022E0FF900024E0FE30000777
:10034300651070030203E4D2008E10E5126F6003A0
:100353000203E4900023E0900022F0A3E512F09062
:1003630000257480F09000217409F0900026E024A9
:10037300FE604924027056E4FFEFC3940474809432
:1003830080501B74FC2FF582E43400F583E0FE7487
:10039300272FF582E43400F583EEF00F80DB900025
:1003A3002BE5B5F0A3E5ADF0A3E5B6F0900025E0AD
:1003B3004440F0900021E02407F080111200569091
:1003C3000025E04440F0900021E02410F09000214B
:1003D300E004F5117C007D20FF1203E550031200B9
:1003E3000622E4F5097E017901EFFBC394097480C9
:1003F3009480400AD3EB9449748094804002C322D2
:1004030043CE0443CE088D828C83E4F0EEC39F5029
:100413005FED2EF582E43CF583E0F50AEF24FEFB65
:10042300EEC39B5003850ADDEF24FD6E702953CE86
:10043300FEEF24FEFBE434FFFAED2BF582EC3AF5F4
:1004430083E5DEF0EF24FFFBE434FFFAED2BF582C6
:10045300EC3AF583E5DEF0E50A7011ED2509F58246
:10046300E43CF583E9F079018E098001090E809C53
:10047300ED2509F582E43CF583E9F0D32212004728
:10048300787FE4F6D8FD7581200204CA02024CE4A9
:1004930093A3F8E493A34003F68001F208DFF4800A
:1004A30029E493A3F85407240CC8C333C4540F445A
:1004B30020C8834004F456800146F6DFE4800B0134
:1004C300020408102040809005E7E47E019360BC9D
:1004D300A3FF543F30E509541FFEE493A360010ECC
:1004E300CF54C025E060A840B8E493A3FAE493A3F3
:1004F300F8E493A3C8C582C8CAC583CAF0A3C8C514
:1005030082C8CAC583CADFE9DEE780BE8C098D0ACB
:10051300E4F9FEEFFDC3940974809480400AD3ED9F
:100523009449748094804002C322850A828509839A
:10053300A3E0FDEF146D6002C32243CE0443CE0853
:1005430053CEFEEEC39F5041E50A2EF582E43509F2
:10055300F583E0FDEEB5011AC3EF99FCEDD39C40A2
:100563000122ED29F9E50A2EF582E43509F583E444
:10057300F0FDEF24FEFCEEC39C4006ACDEEC6D8088
:1005830005EE60028DDD0E80BAD322E4F50FF50E81
:10059300F50DF50C75CDF475CC0AFBEBC394107413
:1005A300809480502ED2CA438701858787C2CA753B
:1005B300CDFF75CC67AFBDAEBEE4FCFDE50F2FF5F7
:1005C3000FE50E3EF50EED350DF50DEC350CF50C86
:1005D3000B80C8E47B10FAF9F8AF0FAE0EAD0DAC8B
:1005E3000C02018D011100011201500000000A00EC
:1005F3000A000A000A000A000A0000F5A0500010D1
:100603004F424F424F424F424F424F4212C020E5AA
:09061300C1000001030204060508
:00000001FF
