:100000000206D80209C0901C00E493F515E515F42A
:100010007002F5151209195033E4FFEFC394107400
:100020008094805027EF901C0493FE74002FF5827B
:10003000E43400F583EEF0EF901C1493FE74102F5F
:10004000F582E43400F583EEF00F80CF2278A575B9
:10005000EF12220209BDC2027C007D20AF141207FC
:10006000EC40030202BC900022E0F509A3E0FF305F
:100070000005B51302D202D2008F13900024E0FFD6
:100080005403FEEF54FC1313543FF50BAF06EF601F
:10009000030202BCD3E50B942F74809480400302CA
:1000A00002BCE004F03002031208C4900024E00413
:1000B000F0E51565096003020213E51570030202FD
:1000C000139000217406F0E50B24FE606824F370A1
:1000D0000302020824FE607014700302019E147073
:1000E000030201E424136003020210E4F50AC3E5ED
:1000F0000A940474809480501E74FC250AF582E4EE
:100100003400F583E0FF7425250AF582E43400F518
:1001100083EFF0050A80D7900029E5B5F0A3E5AD9F
:10012000F0A3E5B6F0900024E004F0900021E02474
:1001300007F00202B91203B8900024E004F0900026
:1001400021E02410F00202B9E4F50AC3E50A941094
:100150007480948050387400250AF582E43400F5E8
:1001600083E0FF7425250AF582E43400F583EFF07F
:100170007410250AF582E43400F583E0FF74352518
:100180000AF582E43400F583EFF0050A80BD9000A3
:1001900024E004F0900021E02420F00202B9E4F50C
:1001A0000AC3E50A941074809480505E7425250A71
:1001B000F582E43400F583E0FF7400250AF582E45B
:1001C0003400F583EFF07435250AF582E43400F548
:1001D00083E0FF7410250AF582E43400F583EFF024
:1001E000050A80BD900025E0F516A3E0F517E49020
:1001F0000025F0A3F01207675006900024E004F0F9
:10020000E4F516F5170202B9D201900024E004F0DB
:100210000202B9E50960030202BCE50B6410702814
:10022000900021E06407702030A0030202BC90001F
:1002300025E0F515900022E515F0900024E004F08B
:100240009000217406F08071E50B705020A04DF5F0
:100250000AC3E50A940474809480501E74FC250A35
:10026000F582E43400F583E0FF7425250AF582E485
:100270003400F583EFF0050A80D7900029E5B5F04A
:10028000A3E5ADF0A3E5B6F0900022E515F09000EF
:1002900024E004F0900021740DF0801DE50B640F44
:1002A000701A20A017D201900022E515F0900024CA
:1002B000E004F09000217406F01208C42275F008E2
:1002C000758200EF2FFFEE33FECD33CDCC33CCC59E
:1002D0008233C5829BED9AEC99E58298400CF582B9
:1002E000EE9BFEED9AFDEC99FC0FD5F0D6E4CEFB2B
:1002F000E4CDFAE4CCF9A88222B800C1B90059BA19
:10030000002DEC8BF084CFCECDFCE5F0CBF9781846
:10031000EF2FFFEE33FEED33FDEC33FCEB33FB1040
:10032000D703994004EB99FB0FD8E5E4F9FA22785A
:1003300018EF2FFFEE33FEED33FDEC33FCC933C96C
:1003400010D7059BE99A4007EC9BFCE99AF90FD876
:10035000E0E4C9FAE4CCFB2275F010EF2FFFEE3396
:10036000FEED33FDCC33CCC833C810D7079BEC9AD5
:10037000E899400AED9BFDEC9AFCE899F80FD5F05E
:10038000DAE4CDFBE4CCFAE4C8F922EC8EF0A4CC9C
:10039000C5F0CCCDF8EFA4CEC5F02DFDE43CFCE8D3
:1003A000A42EC8C5F03DFDE43CFCEFA4FFE5F02819
:1003B000FEE43DFDE43CFC2275BB07E4F50EC3E51D
:1003C0000E9406748094805065E50E9009C193F5F3
:1003D0009012086BE50E25E02410F582E43400F558
:1003E00083E0FCA3E0FD12038BE4FBFA7901F81231
:1003F00002F9E50E25E02400F582E43400F583E0FF
:10040000FCA3E02FF50DEC3EF50CFFE50E25E024F6
:1004100025F582E43400F583EFF0E50E25E024268F
:10042000F582E43400F583E50DF0050E8090E4F5E7
:100430009053BCFE75BB1212086B90001CE0FCA32D
:10044000E0FD12038BE4FBFA7901F81202F9900047
:100450000DE02FF50D90000CE03EF50CFF90003103
:10046000EFF0E50DA3F043D10475BB1043BC0112BE
:10047000086B90001EE0FCA3E0FD12038BE4FBFA86
:100480007901F81202F990000FE02FF50D90000E9F
:10049000E03EF50C75BB1353D1FBE50CFF90003328
:1004A000EFF0E50DA3F02243FF8075EF0275A94040
:1004B00043B1827580F075A45075F17F75D480E4E6
:1004C000F59075A50775E10175E34075B20175BB3F
:1004D0001375BC0975B38575DF4475B92875E84295
:1004E00075D198758E11758921758DB0758BB0D2C7
:1004F0008EF5C8F5CBF5CA1209AB75E405D28812A2
:10050000000643E608D2AFD28CD29CC286300103EB
:1005100012004D20982C308DFA1209ABE4F514C26C
:100520009CC29875A902C289D2A8C2864387018558
:10053000878775A940D286C2A83085FDD29CD28C0F
:1005400080D11209ABD28C859908C298E508702138
:10055000C3E51494067480948040111209ABD28CC8
:10056000120056E4F514D28DC29880A1E4F51480EF
:100570009CC3E5149449748094805091AF14051481
:1005800074202FF582E43400F583E508F002050DB0
:1005900043CE0443CE08E4FFEFC3941074809480EC
:1005A000501074002FF582E43400F583E0F5DD0F80
:1005B00080E6E4FFEFC394107480948050107410B0
:1005C0002FF582E43400F583E0F5DD0F80E643CEBD
:1005D00001901C02E49365DE6002C32253CEFE90BC
:1005E0001C03E49365DE6002C322901C01E4936463
:1005F000016002C322901C00E49365156002C322CF
:10060000E4FFEFC3941074809480502FEF901C048B
:1006100093FE74002FF582E43400F583E06E6002EF
:10062000C322EF901C1493FE74102FF582E4340063
:10063000F583E06E6002C3220F80C7D322E4F50D7C
:100640007E017901EFFBC3940674809480400AD345
:10065000EB9449748094804002C32243CE0443CE7D
:10066000088D828C83E4F0EEC39F505FED2EF582FF
:10067000E43CF583E0F50EEF24FEFBEEC39B500354
:10068000850EDDEF24FD6E702943CE01EF24FEFBC5
:10069000E434FFFAED2BF582EC3AF583E5DEF0EF7A
:1006A00024FFFBE434FFFAED2BF582EC3AF583E509
:1006B000DEF0E50E7011ED250DF582E43CF583E9E1
:1006C000F079018E0D8001090E809CED250DF582DB
:1006D000E43CF583E9F0D3221209B6787FE4F6D83A
:1006E000FD7581200207220204A7E493A3F8E49396
:1006F000A34003F68001F208DFF48029E493A3F815
:100700005407240CC8C333C4540F4420C883400486
:10071000F456800146F6DFE4800B01020408102045
:10072000408090095DE47E019360BCA3FF543F309C
:10073000E509541FFEE493A360010ECF54C025E0E9
:1007400060A840B8E493A3FAE493A3F8E493A3C8A1
:10075000C582C8CAC583CAF0A3C8C582C8CAC58332
:10076000CADFE9DEE780BEE516645A7006E5176465
:100770000E6002C322120590500122438F02E4FD55
:10078000FF7E1C120994AD15120994E4FCECC3948D
:1007900010748094805031EC2404FFE4341CFE7407
:1007A000002CF582E43400F583E0FD120994EC247A
:1007B00014FFE4341CFE74102CF582E43400F5833D
:1007C000E0FD1209940C80C543CE01ADDE7F027EB0
:1007D0001C12099453CEFEADDE0F1209947D017FE9
:1007E00001120994120590400122D3228C0C8D0D28
:1007F000E4F9FEEFFDC3940674809480400AD3EDC3
:100800009449748094804002C322850D82850C83B4
:10081000A3E0FDEF146D6002C32243CE0443CE0873
:1008200043CE01EEC39F5041E50D2EF582E4350C19
:10083000F583E0FDEEB5011AC3EF99FCEDD39C40C2
:100840000122ED29F9E50D2EF582E4350CF583E45E
:10085000F0FDEF24FEFCEEC39C4006ACDEEC6D80A8
:1008600005EE60028DDD0E80BAD322E4F512F5119B
:10087000F510F50F75CDF475CC0AFBEBC39410742D
:10088000809480502ED2CA438701858787C2CA755B
:10089000CDFF75CC67AFBDAEBEE4FCFDE5122FF514
:1008A00012E5113EF511ED3510F510EC350FF50F91
:1008B0000B80C8E47B10FAF9F8AF12AE11AD10ACA2
:1008C0000F0202F9900021E004F50C7C007D20FF6E
:1008D00012063D400122C28CC28D758CF8758A8546
:1008E000D28C308DFD1209ABC299E4F5993099FD97
:1008F000C299E4FFEFC3950C501574202FF582E4E4
:100900003400F583E0F5993099FDC2990F80E5E454
:10091000F5993099FDC299D322901C01E4936401AA
:100920006002C32243CE0443CE087F04EFC3942465
:1009300074809480500AEF901C0093F5DD0F80ECDA
:1009400043CE01901C02E49365DE6002C32253CEC5
:10095000FE901C03E49365DED36001C322C1010154
:100960001400011501011600011700500000000AD3
:10097000000A000A000A000A000A0000F5A0500060
:10098000104F424F424F424F424F424F4212C020FF
:10099000E5C100008F828E83E516F4F5B7E517F404
:1009A000F5B7438F01EDF0538FFC22C28CC28D75D9
:1009B0008C6A758A76227597DE7597AD22C2ED3204
:1009C00032010302040605FFFFFFFFFFFFFFFFFFE9
:1009D000FFFFFFFFFFFFFFFFFFFFFFFFFFFFFFFF27
:1009E000FFFFFFFFFFFFFFFFFFFFFFFFFFFFFFFF17
:1009F000FFFFFFFFFFFFFFFFFFFFFFFFFFFFFFFF07
:100A0000FFFFFFFFFFFFFFFFFFFFFFFFFFFFFFFFF6
:101BF000FFFFFFFFFFFFFFFFFFFFFFFFFFFF4B9A0E
:00000001FF
